{
  "contractName": "OrganChain",
  "abi": [
    {
      "inputs": [],
      "stateMutability": "nonpayable",
      "type": "constructor"
    },
    {
      "anonymous": false,
      "inputs": [
        {
          "indexed": true,
          "internalType": "address",
          "name": "admin",
          "type": "address"
        }
      ],
      "name": "AdminAdded",
      "type": "event"
    },
    {
      "anonymous": false,
      "inputs": [
        {
          "indexed": true,
          "internalType": "address",
          "name": "admin",
          "type": "address"
        }
      ],
      "name": "AdminRemoved",
      "type": "event"
    },
    {
      "anonymous": false,
      "inputs": [
        {
          "indexed": true,
          "internalType": "address",
          "name": "hospital",
          "type": "address"
        },
        {
          "indexed": false,
          "internalType": "string",
          "name": "name",
          "type": "string"
        },
        {
          "indexed": false,
          "internalType": "string",
          "name": "email",
          "type": "string"
        },
        {
          "indexed": false,
          "internalType": "string",
          "name": "location",
          "type": "string"
        }
      ],
      "name": "HospitalAdded",
      "type": "event"
    },
    {
      "anonymous": false,
      "inputs": [
        {
          "indexed": true,
          "internalType": "address",
          "name": "hospital",
          "type": "address"
        },
        {
          "indexed": false,
          "internalType": "string",
          "name": "name",
          "type": "string"
        }
      ],
      "name": "HospitalRemoved",
      "type": "event"
    },
    {
      "anonymous": false,
      "inputs": [
        {
          "indexed": true,
          "internalType": "uint256",
          "name": "matchId",
          "type": "uint256"
        },
        {
          "indexed": false,
          "internalType": "string",
          "name": "donorName",
          "type": "string"
        },
        {
          "indexed": false,
          "internalType": "uint256",
          "name": "donorAge",
          "type": "uint256"
        },
        {
          "indexed": false,
          "internalType": "string",
          "name": "donorHospital",
          "type": "string"
        },
        {
          "indexed": false,
          "internalType": "string",
          "name": "encryptedOrgan",
          "type": "string"
        },
        {
          "indexed": false,
          "internalType": "string",
          "name": "encryptedBloodType",
          "type": "string"
        },
        {
          "indexed": false,
          "internalType": "string",
          "name": "patientName",
          "type": "string"
        },
        {
          "indexed": false,
          "internalType": "uint256",
          "name": "patientAge",
          "type": "uint256"
        },
        {
          "indexed": false,
          "internalType": "string",
          "name": "patientHospital",
          "type": "string"
        },
        {
          "indexed": false,
          "internalType": "string",
          "name": "date",
          "type": "string"
        },
        {
          "indexed": false,
          "internalType": "string",
          "name": "details",
          "type": "string"
        }
      ],
      "name": "MatchAdded",
      "type": "event"
    },
    {
      "anonymous": false,
      "inputs": [
        {
          "indexed": false,
          "internalType": "string",
          "name": "donorId",
          "type": "string"
        },
        {
          "indexed": false,
          "internalType": "string",
          "name": "organType",
          "type": "string"
        },
        {
          "indexed": false,
          "internalType": "string",
          "name": "hospital",
          "type": "string"
        },
        {
          "indexed": false,
          "internalType": "string",
          "name": "receiverId",
          "type": "string"
        }
      ],
      "name": "OrganRegistered",
      "type": "event"
    },
    {
      "inputs": [
        {
          "internalType": "address",
          "name": "",
          "type": "address"
        }
      ],
      "name": "authorizedAdmins",
      "outputs": [
        {
          "internalType": "bool",
          "name": "",
          "type": "bool"
        }
      ],
      "stateMutability": "view",
      "type": "function",
      "constant": true
    },
    {
      "inputs": [
        {
          "internalType": "address",
          "name": "",
          "type": "address"
        }
      ],
      "name": "hospitals",
      "outputs": [
        {
          "internalType": "string",
          "name": "name",
          "type": "string"
        },
        {
          "internalType": "string",
          "name": "email",
          "type": "string"
        },
        {
          "internalType": "string",
          "name": "location",
          "type": "string"
        },
        {
          "internalType": "bool",
          "name": "isRegistered",
          "type": "bool"
        }
      ],
      "stateMutability": "view",
      "type": "function",
      "constant": true
    },
    {
      "inputs": [
        {
          "internalType": "uint256",
          "name": "",
          "type": "uint256"
        }
      ],
      "name": "matches",
      "outputs": [
        {
          "internalType": "string",
          "name": "donorName",
          "type": "string"
        },
        {
          "internalType": "uint256",
          "name": "donorAge",
          "type": "uint256"
        },
        {
          "internalType": "string",
          "name": "donorHospital",
          "type": "string"
        },
        {
          "internalType": "string",
          "name": "encryptedOrgan",
          "type": "string"
        },
        {
          "internalType": "string",
          "name": "encryptedBloodType",
          "type": "string"
        },
        {
          "internalType": "string",
          "name": "patientName",
          "type": "string"
        },
        {
          "internalType": "uint256",
          "name": "patientAge",
          "type": "uint256"
        },
        {
          "internalType": "string",
          "name": "patientHospital",
          "type": "string"
        },
        {
          "internalType": "string",
          "name": "date",
          "type": "string"
        }
      ],
      "stateMutability": "view",
      "type": "function",
      "constant": true
    },
    {
      "inputs": [],
      "name": "owner",
      "outputs": [
        {
          "internalType": "address",
          "name": "",
          "type": "address"
        }
      ],
      "stateMutability": "view",
      "type": "function",
      "constant": true
    },
    {
      "inputs": [
        {
          "internalType": "uint256",
          "name": "",
          "type": "uint256"
        }
      ],
      "name": "records",
      "outputs": [
        {
          "internalType": "string",
          "name": "donorId",
          "type": "string"
        },
        {
          "internalType": "string",
          "name": "organType",
          "type": "string"
        },
        {
          "internalType": "string",
          "name": "hospital",
          "type": "string"
        },
        {
          "internalType": "string",
          "name": "receiverId",
          "type": "string"
        },
        {
          "internalType": "uint256",
          "name": "timestamp",
          "type": "uint256"
        }
      ],
      "stateMutability": "view",
      "type": "function",
      "constant": true
    },
    {
      "inputs": [
        {
          "internalType": "address",
          "name": "admin",
          "type": "address"
        }
      ],
      "name": "addAdmin",
      "outputs": [],
      "stateMutability": "nonpayable",
      "type": "function"
    },
    {
      "inputs": [
        {
          "internalType": "address",
          "name": "admin",
          "type": "address"
        }
      ],
      "name": "removeAdmin",
      "outputs": [],
      "stateMutability": "nonpayable",
      "type": "function"
    },
    {
      "inputs": [
        {
          "internalType": "string",
          "name": "name",
          "type": "string"
        },
        {
          "internalType": "string",
          "name": "email",
          "type": "string"
        },
        {
          "internalType": "string",
          "name": "location",
          "type": "string"
        }
      ],
      "name": "addHospital",
      "outputs": [],
      "stateMutability": "nonpayable",
      "type": "function"
    },
    {
      "inputs": [],
      "name": "removeHospital",
      "outputs": [],
      "stateMutability": "nonpayable",
      "type": "function"
    },
    {
      "inputs": [
        {
          "internalType": "address",
          "name": "hospitalAddr",
          "type": "address"
        }
      ],
      "name": "getHospital",
      "outputs": [
        {
          "internalType": "string",
          "name": "",
          "type": "string"
        },
        {
          "internalType": "string",
          "name": "",
          "type": "string"
        },
        {
          "internalType": "string",
          "name": "",
          "type": "string"
        },
        {
          "internalType": "bool",
          "name": "",
          "type": "bool"
        }
      ],
      "stateMutability": "view",
      "type": "function",
      "constant": true
    },
    {
      "inputs": [
        {
          "internalType": "address",
          "name": "hospitalAddr",
          "type": "address"
        }
      ],
      "name": "isHospitalRegistered",
      "outputs": [
        {
          "internalType": "bool",
          "name": "",
          "type": "bool"
        }
      ],
      "stateMutability": "view",
      "type": "function",
      "constant": true
    },
    {
      "inputs": [
        {
          "internalType": "address",
          "name": "addr",
          "type": "address"
        }
      ],
      "name": "isAdmin",
      "outputs": [
        {
          "internalType": "bool",
          "name": "",
          "type": "bool"
        }
      ],
      "stateMutability": "view",
      "type": "function",
      "constant": true
    },
    {
      "inputs": [
        {
          "internalType": "string",
          "name": "donorName",
          "type": "string"
        },
        {
          "internalType": "uint256",
          "name": "donorAge",
          "type": "uint256"
        },
        {
          "internalType": "string",
          "name": "donorHospital",
          "type": "string"
        },
        {
          "internalType": "string",
          "name": "encryptedOrgan",
          "type": "string"
        },
        {
          "internalType": "string",
          "name": "encryptedBloodType",
          "type": "string"
        },
        {
          "internalType": "string",
          "name": "patientName",
          "type": "string"
        },
        {
          "internalType": "uint256",
          "name": "patientAge",
          "type": "uint256"
        },
        {
          "internalType": "string",
          "name": "patientHospital",
          "type": "string"
        },
        {
          "internalType": "string",
          "name": "date",
          "type": "string"
        }
      ],
      "name": "addMatch",
      "outputs": [],
      "stateMutability": "nonpayable",
      "type": "function"
    },
    {
      "inputs": [],
      "name": "getAllMatches",
      "outputs": [
        {
          "components": [
            {
              "internalType": "string",
              "name": "donorName",
              "type": "string"
            },
            {
              "internalType": "uint256",
              "name": "donorAge",
              "type": "uint256"
            },
            {
              "internalType": "string",
              "name": "donorHospital",
              "type": "string"
            },
            {
              "internalType": "string",
              "name": "encryptedOrgan",
              "type": "string"
            },
            {
              "internalType": "string",
              "name": "encryptedBloodType",
              "type": "string"
            },
            {
              "internalType": "string",
              "name": "patientName",
              "type": "string"
            },
            {
              "internalType": "uint256",
              "name": "patientAge",
              "type": "uint256"
            },
            {
              "internalType": "string",
              "name": "patientHospital",
              "type": "string"
            },
            {
              "internalType": "string",
              "name": "date",
              "type": "string"
            }
          ],
          "internalType": "struct OrganChain.Match[]",
          "name": "",
          "type": "tuple[]"
        }
      ],
      "stateMutability": "view",
      "type": "function",
      "constant": true
    },
    {
      "inputs": [],
      "name": "getMatchesCount",
      "outputs": [
        {
          "internalType": "uint256",
          "name": "",
          "type": "uint256"
        }
      ],
      "stateMutability": "view",
      "type": "function",
      "constant": true
    },
    {
      "inputs": [
        {
          "internalType": "string",
          "name": "donorId",
          "type": "string"
        },
        {
          "internalType": "string",
          "name": "organType",
          "type": "string"
        },
        {
          "internalType": "string",
          "name": "hospital",
          "type": "string"
        },
        {
          "internalType": "string",
          "name": "receiverId",
          "type": "string"
        }
      ],
      "name": "addRecord",
      "outputs": [],
      "stateMutability": "nonpayable",
      "type": "function"
    },
    {
      "inputs": [],
      "name": "getAllRecords",
      "outputs": [
        {
          "components": [
            {
              "internalType": "string",
              "name": "donorId",
              "type": "string"
            },
            {
              "internalType": "string",
              "name": "organType",
              "type": "string"
            },
            {
              "internalType": "string",
              "name": "hospital",
              "type": "string"
            },
            {
              "internalType": "string",
              "name": "receiverId",
              "type": "string"
            },
            {
              "internalType": "uint256",
              "name": "timestamp",
              "type": "uint256"
            }
          ],
          "internalType": "struct OrganChain.Record[]",
          "name": "",
          "type": "tuple[]"
        }
      ],
      "stateMutability": "view",
      "type": "function",
      "constant": true
    }
  ],
  "bytecode": "0x608060405234801561001057600080fd5b5033600460006101000a81548173ffffffffffffffffffffffffffffffffffffffff021916908373ffffffffffffffffffffffffffffffffffffffff16021790555060018060003373ffffffffffffffffffffffffffffffffffffffff1673ffffffffffffffffffffffffffffffffffffffff16815260200190815260200160002060006101000a81548160ff02191690831515021790555061381d806100b86000396000f3fe608060405234801561001057600080fd5b506004361061010b5760003560e01c806397fd28b3116100a2578063bfd4e49e11610071578063bfd4e49e146102b0578063c10460d8146102cc578063c17c5a45146102fc578063c49b09b51461031a578063f093cf801461034d5761010b565b806397fd28b314610228578063a7f9fe7214610244578063b4ed9af514610262578063bc84243e146102805761010b565b80634768d4ef116100de5780634768d4ef1461019a57806370480275146101d25780638da5cb5b146101ee57806395cb7fff1461020c5761010b565b80630bf453e2146101105780631785f53c1461011a57806324d7806c146101365780633446106714610166575b600080fd5b610118610380565b005b610134600480360381019061012f91906122c8565b610706565b005b610150600480360381019061014b91906122c8565b610834565b60405161015d9190612310565b60405180910390f35b610180600480360381019061017b9190612361565b6108e2565b60405161019195949392919061242d565b60405180910390f35b6101b460048036038101906101af9190612361565b610b48565b6040516101c99998979695949392919061249c565b60405180910390f35b6101ec60048036038101906101e791906122c8565b610f5e565b005b6101f661108b565b6040516102039190612569565b60405180910390f35b610226600480360381019061022191906126b9565b6110b1565b005b610242600480360381019061023d9190612847565b61127e565b005b61024c611377565b6040516102599190612ac4565b60405180910390f35b61026a611628565b6040516102779190612ae6565b60405180910390f35b61029a600480360381019061029591906122c8565b611635565b6040516102a79190612310565b60405180910390f35b6102ca60048036038101906102c59190612b01565b61168d565b005b6102e660048036038101906102e191906122c8565b6117ab565b6040516102f39190612310565b60405180910390f35b6103046117cb565b6040516103119190612d59565b60405180910390f35b610334600480360381019061032f91906122c8565b611c3d565b6040516103449493929190612d7b565b60405180910390f35b610367600480360381019061036291906122c8565b611e85565b6040516103779493929190612d7b565b60405180910390f35b6000803373ffffffffffffffffffffffffffffffffffffffff1673ffffffffffffffffffffffffffffffffffffffff16815260200190815260200160002060030160009054906101000a900460ff1661040e576040517f08c379a000000000000000000000000000000000000000000000000000000000815260040161040590612e47565b60405180910390fd5b60008060003373ffffffffffffffffffffffffffffffffffffffff1673ffffffffffffffffffffffffffffffffffffffff16815260200190815260200160002060405180608001604052908160008201805461046990612e96565b80601f016020809104026020016040519081016040528092919081815260200182805461049590612e96565b80156104e25780601f106104b7576101008083540402835291602001916104e2565b820191906000526020600020905b8154815290600101906020018083116104c557829003601f168201915b505050505081526020016001820180546104fb90612e96565b80601f016020809104026020016040519081016040528092919081815260200182805461052790612e96565b80156105745780601f1061054957610100808354040283529160200191610574565b820191906000526020600020905b81548152906001019060200180831161055757829003601f168201915b5050505050815260200160028201805461058d90612e96565b80601f01602080910402602001604051908101604052809291908181526020018280546105b990612e96565b80156106065780601f106105db57610100808354040283529160200191610606565b820191906000526020600020905b8154815290600101906020018083116105e957829003601f168201915b505050505081526020016003820160009054906101000a900460ff16151515158152505090506000803373ffffffffffffffffffffffffffffffffffffffff1673ffffffffffffffffffffffffffffffffffffffff1681526020019081526020016000206000808201600061067b91906121f9565b60018201600061068b91906121f9565b60028201600061069b91906121f9565b6003820160006101000a81549060ff021916905550503373ffffffffffffffffffffffffffffffffffffffff167f1a7b4b7b16d64661666722794f103b24f277a44dbbd1499eed91bd3422f2ee8782600001516040516106fb9190612ec7565b60405180910390a250565b600460009054906101000a900473ffffffffffffffffffffffffffffffffffffffff1673ffffffffffffffffffffffffffffffffffffffff163373ffffffffffffffffffffffffffffffffffffffff1614610796576040517f08c379a000000000000000000000000000000000000000000000000000000000815260040161078d90612f5b565b60405180910390fd5b6000600160008373ffffffffffffffffffffffffffffffffffffffff1673ffffffffffffffffffffffffffffffffffffffff16815260200190815260200160002060006101000a81548160ff0219169083151502179055508073ffffffffffffffffffffffffffffffffffffffff167fa3b62bc36326052d97ea62d63c3d60308ed4c3ea8ac079dd8499f1e9c4f80c0f60405160405180910390a250565b6000600160008373ffffffffffffffffffffffffffffffffffffffff1673ffffffffffffffffffffffffffffffffffffffff16815260200190815260200160002060009054906101000a900460ff16806108db5750600460009054906101000a900473ffffffffffffffffffffffffffffffffffffffff1673ffffffffffffffffffffffffffffffffffffffff168273ffffffffffffffffffffffffffffffffffffffff16145b9050919050565b600381815481106108f257600080fd5b906000526020600020906005020160009150905080600001805461091590612e96565b80601f016020809104026020016040519081016040528092919081815260200182805461094190612e96565b801561098e5780601f106109635761010080835404028352916020019161098e565b820191906000526020600020905b81548152906001019060200180831161097157829003601f168201915b5050505050908060010180546109a390612e96565b80601f01602080910402602001604051908101604052809291908181526020018280546109cf90612e96565b8015610a1c5780601f106109f157610100808354040283529160200191610a1c565b820191906000526020600020905b8154815290600101906020018083116109ff57829003601f168201915b505050505090806002018054610a3190612e96565b80601f0160208091040260200160405190810160405280929190818152602001828054610a5d90612e96565b8015610aaa5780601f10610a7f57610100808354040283529160200191610aaa565b820191906000526020600020905b815481529060010190602001808311610a8d57829003601f168201915b505050505090806003018054610abf90612e96565b80601f0160208091040260200160405190810160405280929190818152602001828054610aeb90612e96565b8015610b385780601f10610b0d57610100808354040283529160200191610b38565b820191906000526020600020905b815481529060010190602001808311610b1b57829003601f168201915b5050505050908060040154905085565b60028181548110610b5857600080fd5b9060005260206000209060090201600091509050806000018054610b7b90612e96565b80601f0160208091040260200160405190810160405280929190818152602001828054610ba790612e96565b8015610bf45780601f10610bc957610100808354040283529160200191610bf4565b820191906000526020600020905b815481529060010190602001808311610bd757829003601f168201915b505050505090806001015490806002018054610c0f90612e96565b80601f0160208091040260200160405190810160405280929190818152602001828054610c3b90612e96565b8015610c885780601f10610c5d57610100808354040283529160200191610c88565b820191906000526020600020905b815481529060010190602001808311610c6b57829003601f168201915b505050505090806003018054610c9d90612e96565b80601f0160208091040260200160405190810160405280929190818152602001828054610cc990612e96565b8015610d165780601f10610ceb57610100808354040283529160200191610d16565b820191906000526020600020905b815481529060010190602001808311610cf957829003601f168201915b505050505090806004018054610d2b90612e96565b80601f0160208091040260200160405190810160405280929190818152602001828054610d5790612e96565b8015610da45780601f10610d7957610100808354040283529160200191610da4565b820191906000526020600020905b815481529060010190602001808311610d8757829003601f168201915b505050505090806005018054610db990612e96565b80601f0160208091040260200160405190810160405280929190818152602001828054610de590612e96565b8015610e325780601f10610e0757610100808354040283529160200191610e32565b820191906000526020600020905b815481529060010190602001808311610e1557829003601f168201915b505050505090806006015490806007018054610e4d90612e96565b80601f0160208091040260200160405190810160405280929190818152602001828054610e7990612e96565b8015610ec65780601f10610e9b57610100808354040283529160200191610ec6565b820191906000526020600020905b815481529060010190602001808311610ea957829003601f168201915b505050505090806008018054610edb90612e96565b80601f0160208091040260200160405190810160405280929190818152602001828054610f0790612e96565b8015610f545780601f10610f2957610100808354040283529160200191610f54565b820191906000526020600020905b815481529060010190602001808311610f3757829003601f168201915b5050505050905089565b600460009054906101000a900473ffffffffffffffffffffffffffffffffffffffff1673ffffffffffffffffffffffffffffffffffffffff163373ffffffffffffffffffffffffffffffffffffffff1614610fee576040517f08c379a0000000000000000000000000000000000000000000000000000000008152600401610fe590612f5b565b60405180910390fd5b60018060008373ffffffffffffffffffffffffffffffffffffffff1673ffffffffffffffffffffffffffffffffffffffff16815260200190815260200160002060006101000a81548160ff0219169083151502179055508073ffffffffffffffffffffffffffffffffffffffff167f44d6d25963f097ad14f29f06854a01f575648a1ef82f30e562ccd3889717e33960405160405180910390a250565b600460009054906101000a900473ffffffffffffffffffffffffffffffffffffffff1681565b60026040518061012001604052808b81526020018a815260200189815260200188815260200187815260200186815260200185815260200184815260200183815250908060018154018082558091505060019003906000526020600020906009020160009091909190915060008201518160000190816111319190613127565b506020820151816001015560408201518160020190816111519190613127565b5060608201518160030190816111679190613127565b50608082015181600401908161117d9190613127565b5060a08201518160050190816111939190613127565b5060c0820151816006015560e08201518160070190816111b39190613127565b506101008201518160080190816111ca9190613127565b5050506000896111d98a61205a565b89876111e48861205a565b876111ee8d6121ba565b886040516020016112069897969594939291906133fd565b6040516020818303038152906040529050600160028054905061122991906134f6565b7f21b7535272f9a01406a54d63506904591d30c2553081ab3fbe55c0e331897f708b8b8b8b8b8b8b8b8b8b60405161126a9a9998979695949392919061352a565b60405180910390a250505050505050505050565b60036040518060a0016040528086815260200185815260200184815260200183815260200142815250908060018154018082558091505060019003906000526020600020906005020160009091909190915060008201518160000190816112e59190613127565b5060208201518160010190816112fb9190613127565b5060408201518160020190816113119190613127565b5060608201518160030190816113279190613127565b506080820151816004015550507f3910f6cf14f6b6eb1a5cc1989deb85e8f67ede29e99393083766ac6329b0c4778484848460405161136994939291906135fe565b60405180910390a150505050565b60606003805480602002602001604051908101604052809291908181526020016000905b8282101561161f57838290600052602060002090600502016040518060a00160405290816000820180546113ce90612e96565b80601f01602080910402602001604051908101604052809291908181526020018280546113fa90612e96565b80156114475780601f1061141c57610100808354040283529160200191611447565b820191906000526020600020905b81548152906001019060200180831161142a57829003601f168201915b5050505050815260200160018201805461146090612e96565b80601f016020809104026020016040519081016040528092919081815260200182805461148c90612e96565b80156114d95780601f106114ae576101008083540402835291602001916114d9565b820191906000526020600020905b8154815290600101906020018083116114bc57829003601f168201915b505050505081526020016002820180546114f290612e96565b80601f016020809104026020016040519081016040528092919081815260200182805461151e90612e96565b801561156b5780601f106115405761010080835404028352916020019161156b565b820191906000526020600020905b81548152906001019060200180831161154e57829003601f168201915b5050505050815260200160038201805461158490612e96565b80601f01602080910402602001604051908101604052809291908181526020018280546115b090612e96565b80156115fd5780601f106115d2576101008083540402835291602001916115fd565b820191906000526020600020905b8154815290600101906020018083116115e057829003601f168201915b505050505081526020016004820154815250508152602001906001019061139b565b50505050905090565b6000600280549050905090565b60008060008373ffffffffffffffffffffffffffffffffffffffff1673ffffffffffffffffffffffffffffffffffffffff16815260200190815260200160002060030160009054906101000a900460ff169050919050565b6040518060800160405280848152602001838152602001828152602001600115158152506000803373ffffffffffffffffffffffffffffffffffffffff1673ffffffffffffffffffffffffffffffffffffffff16815260200190815260200160002060008201518160000190816117049190613127565b50602082015181600101908161171a9190613127565b5060408201518160020190816117309190613127565b5060608201518160030160006101000a81548160ff0219169083151502179055509050503373ffffffffffffffffffffffffffffffffffffffff167f9852fec51518ea51234b7a2ed37e7b12a59b0646d045aaa871f5f1534e203fb684848460405161179e9392919061365f565b60405180910390a2505050565b60016020528060005260406000206000915054906101000a900460ff1681565b60606002805480602002602001604051908101604052809291908181526020016000905b82821015611c3457838290600052602060002090600902016040518061012001604052908160008201805461182390612e96565b80601f016020809104026020016040519081016040528092919081815260200182805461184f90612e96565b801561189c5780601f106118715761010080835404028352916020019161189c565b820191906000526020600020905b81548152906001019060200180831161187f57829003601f168201915b50505050508152602001600182015481526020016002820180546118bf90612e96565b80601f01602080910402602001604051908101604052809291908181526020018280546118eb90612e96565b80156119385780601f1061190d57610100808354040283529160200191611938565b820191906000526020600020905b81548152906001019060200180831161191b57829003601f168201915b5050505050815260200160038201805461195190612e96565b80601f016020809104026020016040519081016040528092919081815260200182805461197d90612e96565b80156119ca5780601f1061199f576101008083540402835291602001916119ca565b820191906000526020600020905b8154815290600101906020018083116119ad57829003601f168201915b505050505081526020016004820180546119e390612e96565b80601f0160208091040260200160405190810160405280929190818152602001828054611a0f90612e96565b8015611a5c5780601f10611a3157610100808354040283529160200191611a5c565b820191906000526020600020905b815481529060010190602001808311611a3f57829003601f168201915b50505050508152602001600582018054611a7590612e96565b80601f0160208091040260200160405190810160405280929190818152602001828054611aa190612e96565b8015611aee5780601f10611ac357610100808354040283529160200191611aee565b820191906000526020600020905b815481529060010190602001808311611ad157829003601f168201915b5050505050815260200160068201548152602001600782018054611b1190612e96565b80601f0160208091040260200160405190810160405280929190818152602001828054611b3d90612e96565b8015611b8a5780601f10611b5f57610100808354040283529160200191611b8a565b820191906000526020600020905b815481529060010190602001808311611b6d57829003601f168201915b50505050508152602001600882018054611ba390612e96565b80601f0160208091040260200160405190810160405280929190818152602001828054611bcf90612e96565b8015611c1c5780601f10611bf157610100808354040283529160200191611c1c565b820191906000526020600020905b815481529060010190602001808311611bff57829003601f168201915b505050505081525050815260200190600101906117ef565b50505050905090565b60608060606000806000808773ffffffffffffffffffffffffffffffffffffffff1673ffffffffffffffffffffffffffffffffffffffff168152602001908152602001600020604051806080016040529081600082018054611c9e90612e96565b80601f0160208091040260200160405190810160405280929190818152602001828054611cca90612e96565b8015611d175780601f10611cec57610100808354040283529160200191611d17565b820191906000526020600020905b815481529060010190602001808311611cfa57829003601f168201915b50505050508152602001600182018054611d3090612e96565b80601f0160208091040260200160405190810160405280929190818152602001828054611d5c90612e96565b8015611da95780601f10611d7e57610100808354040283529160200191611da9565b820191906000526020600020905b815481529060010190602001808311611d8c57829003601f168201915b50505050508152602001600282018054611dc290612e96565b80601f0160208091040260200160405190810160405280929190818152602001828054611dee90612e96565b8015611e3b5780601f10611e1057610100808354040283529160200191611e3b565b820191906000526020600020905b815481529060010190602001808311611e1e57829003601f168201915b505050505081526020016003820160009054906101000a900460ff161515151581525050905080600001518160200151826040015183606001519450945094509450509193509193565b6000602052806000526040600020600091509050806000018054611ea890612e96565b80601f0160208091040260200160405190810160405280929190818152602001828054611ed490612e96565b8015611f215780601f10611ef657610100808354040283529160200191611f21565b820191906000526020600020905b815481529060010190602001808311611f0457829003601f168201915b505050505090806001018054611f3690612e96565b80601f0160208091040260200160405190810160405280929190818152602001828054611f6290612e96565b8015611faf5780601f10611f8457610100808354040283529160200191611faf565b820191906000526020600020905b815481529060010190602001808311611f9257829003601f168201915b505050505090806002018054611fc490612e96565b80601f0160208091040260200160405190810160405280929190818152602001828054611ff090612e96565b801561203d5780601f106120125761010080835404028352916020019161203d565b820191906000526020600020905b81548152906001019060200180831161202057829003601f168201915b5050505050908060030160009054906101000a900460ff16905084565b6060600082036120a1576040518060400160405280600181526020017f300000000000000000000000000000000000000000000000000000000000000081525090506121b5565b600082905060005b600082146120d35780806120bc906136ab565b915050600a826120cc9190613722565b91506120a9565b60008167ffffffffffffffff8111156120ef576120ee61258e565b5b6040519080825280601f01601f1916602001820160405280156121215781602001600182028036833780820191505090505b5090505b600085146121ae5760018261213a91906134f6565b9150600a856121499190613753565b60306121559190613784565b60f81b81838151811061216b5761216a6137b8565b5b60200101907effffffffffffffffffffffffffffffffffffffffffffffffffffffffffffff1916908160001a905350600a856121a79190613722565b9450612125565b8093505050505b919050565b60606040518060400160405280601181526020017f5b456e63727970746564204f7267616e5d0000000000000000000000000000008152509050919050565b50805461220590612e96565b6000825580601f106122175750612236565b601f0160209004906000526020600020908101906122359190612239565b5b50565b5b8082111561225257600081600090555060010161223a565b5090565b6000604051905090565b600080fd5b600080fd5b600073ffffffffffffffffffffffffffffffffffffffff82169050919050565b60006122958261226a565b9050919050565b6122a58161228a565b81146122b057600080fd5b50565b6000813590506122c28161229c565b92915050565b6000602082840312156122de576122dd612260565b5b60006122ec848285016122b3565b91505092915050565b60008115159050919050565b61230a816122f5565b82525050565b60006020820190506123256000830184612301565b92915050565b6000819050919050565b61233e8161232b565b811461234957600080fd5b50565b60008135905061235b81612335565b92915050565b60006020828403121561237757612376612260565b5b60006123858482850161234c565b91505092915050565b600081519050919050565b600082825260208201905092915050565b60005b838110156123c85780820151818401526020810190506123ad565b60008484015250505050565b6000601f19601f8301169050919050565b60006123f08261238e565b6123fa8185612399565b935061240a8185602086016123aa565b612413816123d4565b840191505092915050565b6124278161232b565b82525050565b600060a082019050818103600083015261244781886123e5565b9050818103602083015261245b81876123e5565b9050818103604083015261246f81866123e5565b9050818103606083015261248381856123e5565b9050612492608083018461241e565b9695505050505050565b60006101208201905081810360008301526124b7818c6123e5565b90506124c6602083018b61241e565b81810360408301526124d8818a6123e5565b905081810360608301526124ec81896123e5565b9050818103608083015261250081886123e5565b905081810360a083015261251481876123e5565b905061252360c083018661241e565b81810360e083015261253581856123e5565b905081810361010083015261254a81846123e5565b90509a9950505050505050505050565b6125638161228a565b82525050565b600060208201905061257e600083018461255a565b92915050565b600080fd5b600080fd5b7f4e487b7100000000000000000000000000000000000000000000000000000000600052604160045260246000fd5b6125c6826123d4565b810181811067ffffffffffffffff821117156125e5576125e461258e565b5b80604052505050565b60006125f8612256565b905061260482826125bd565b919050565b600067ffffffffffffffff8211156126245761262361258e565b5b61262d826123d4565b9050602081019050919050565b82818337600083830152505050565b600061265c61265784612609565b6125ee565b90508281526020810184848401111561267857612677612589565b5b61268384828561263a565b509392505050565b600082601f8301126126a05761269f612584565b5b81356126b0848260208601612649565b91505092915050565b60008060008060008060008060006101208a8c0312156126dc576126db612260565b5b60008a013567ffffffffffffffff8111156126fa576126f9612265565b5b6127068c828d0161268b565b99505060206127178c828d0161234c565b98505060408a013567ffffffffffffffff81111561273857612737612265565b5b6127448c828d0161268b565b97505060608a013567ffffffffffffffff81111561276557612764612265565b5b6127718c828d0161268b565b96505060808a013567ffffffffffffffff81111561279257612791612265565b5b61279e8c828d0161268b565b95505060a08a013567ffffffffffffffff8111156127bf576127be612265565b5b6127cb8c828d0161268b565b94505060c06127dc8c828d0161234c565b93505060e08a013567ffffffffffffffff8111156127fd576127fc612265565b5b6128098c828d0161268b565b9250506101008a013567ffffffffffffffff81111561282b5761282a612265565b5b6128378c828d0161268b565b9150509295985092959850929598565b6000806000806080858703121561286157612860612260565b5b600085013567ffffffffffffffff81111561287f5761287e612265565b5b61288b8782880161268b565b945050602085013567ffffffffffffffff8111156128ac576128ab612265565b5b6128b88782880161268b565b935050604085013567ffffffffffffffff8111156128d9576128d8612265565b5b6128e58782880161268b565b925050606085013567ffffffffffffffff81111561290657612905612265565b5b6129128782880161268b565b91505092959194509250565b600081519050919050565b600082825260208201905092915050565b6000819050602082019050919050565b600082825260208201905092915050565b60006129668261238e565b612970818561294a565b93506129808185602086016123aa565b612989816123d4565b840191505092915050565b61299d8161232b565b82525050565b600060a08301600083015184820360008601526129c0828261295b565b915050602083015184820360208601526129da828261295b565b915050604083015184820360408601526129f4828261295b565b91505060608301518482036060860152612a0e828261295b565b9150506080830151612a236080860182612994565b508091505092915050565b6000612a3a83836129a3565b905092915050565b6000602082019050919050565b6000612a5a8261291e565b612a648185612929565b935083602082028501612a768561293a565b8060005b85811015612ab25784840389528151612a938582612a2e565b9450612a9e83612a42565b925060208a01995050600181019050612a7a565b50829750879550505050505092915050565b60006020820190508181036000830152612ade8184612a4f565b905092915050565b6000602082019050612afb600083018461241e565b92915050565b600080600060608486031215612b1a57612b19612260565b5b600084013567ffffffffffffffff811115612b3857612b37612265565b5b612b448682870161268b565b935050602084013567ffffffffffffffff811115612b6557612b64612265565b5b612b718682870161268b565b925050604084013567ffffffffffffffff811115612b9257612b91612265565b5b612b9e8682870161268b565b9150509250925092565b600081519050919050565b600082825260208201905092915050565b6000819050602082019050919050565b6000610120830160008301518482036000860152612bf2828261295b565b9150506020830151612c076020860182612994565b5060408301518482036040860152612c1f828261295b565b91505060608301518482036060860152612c39828261295b565b91505060808301518482036080860152612c53828261295b565b91505060a083015184820360a0860152612c6d828261295b565b91505060c0830151612c8260c0860182612994565b5060e083015184820360e0860152612c9a828261295b565b915050610100830151848203610100860152612cb6828261295b565b9150508091505092915050565b6000612ccf8383612bd4565b905092915050565b6000602082019050919050565b6000612cef82612ba8565b612cf98185612bb3565b935083602082028501612d0b85612bc4565b8060005b85811015612d475784840389528151612d288582612cc3565b9450612d3383612cd7565b925060208a01995050600181019050612d0f565b50829750879550505050505092915050565b60006020820190508181036000830152612d738184612ce4565b905092915050565b60006080820190508181036000830152612d9581876123e5565b90508181036020830152612da981866123e5565b90508181036040830152612dbd81856123e5565b9050612dcc6060830184612301565b95945050505050565b7f4f6e6c79207265676973746572656420686f73706974616c732063616e20706560008201527f72666f726d207468697320616374696f6e000000000000000000000000000000602082015250565b6000612e31603183612399565b9150612e3c82612dd5565b604082019050919050565b60006020820190508181036000830152612e6081612e24565b9050919050565b7f4e487b7100000000000000000000000000000000000000000000000000000000600052602260045260246000fd5b60006002820490506001821680612eae57607f821691505b602082108103612ec157612ec0612e67565b5b50919050565b60006020820190508181036000830152612ee181846123e5565b905092915050565b7f4f6e6c79206f776e65722063616e20706572666f726d2074686973206163746960008201527f6f6e000000000000000000000000000000000000000000000000000000000000602082015250565b6000612f45602283612399565b9150612f5082612ee9565b604082019050919050565b60006020820190508181036000830152612f7481612f38565b9050919050565b60008190508160005260206000209050919050565b60006020601f8301049050919050565b600082821b905092915050565b600060088302612fdd7fffffffffffffffffffffffffffffffffffffffffffffffffffffffffffffffff82612fa0565b612fe78683612fa0565b95508019841693508086168417925050509392505050565b6000819050919050565b600061302461301f61301a8461232b565b612fff565b61232b565b9050919050565b6000819050919050565b61303e83613009565b61305261304a8261302b565b848454612fad565b825550505050565b600090565b61306761305a565b613072818484613035565b505050565b5b818110156130965761308b60008261305f565b600181019050613078565b5050565b601f8211156130db576130ac81612f7b565b6130b584612f90565b810160208510156130c4578190505b6130d86130d085612f90565b830182613077565b50505b505050565b600082821c905092915050565b60006130fe600019846008026130e0565b1980831691505092915050565b600061311783836130ed565b9150826002028217905092915050565b6131308261238e565b67ffffffffffffffff8111156131495761314861258e565b5b6131538254612e96565b61315e82828561309a565b600060209050601f831160018114613191576000841561317f578287015190505b613189858261310b565b8655506131f1565b601f19841661319f86612f7b565b60005b828110156131c7578489015182556001820191506020850194506020810190506131a2565b868310156131e457848901516131e0601f8916826130ed565b8355505b6001600288020188555050505b505050505050565b600081905092915050565b7f4f7267616e206d6174636820637265617465643a20446f6e6f72200000000000600082015250565b600061323a601b836131f9565b915061324582613204565b601b82019050919050565b600061325b8261238e565b61326581856131f9565b93506132758185602086016123aa565b80840191505092915050565b7f2028000000000000000000000000000000000000000000000000000000000000600082015250565b60006132b76002836131f9565b91506132c282613281565b600282019050919050565b7f207965617273292066726f6d2000000000000000000000000000000000000000600082015250565b6000613303600d836131f9565b915061330e826132cd565b600d82019050919050565b7f206d61746368656420776974682050617469656e742000000000000000000000600082015250565b600061334f6016836131f9565b915061335a82613319565b601682019050919050565b7f20666f7220000000000000000000000000000000000000000000000000000000600082015250565b600061339b6005836131f9565b91506133a682613365565b600582019050919050565b7f207472616e73706c616e74206f6e200000000000000000000000000000000000600082015250565b60006133e7600f836131f9565b91506133f2826133b1565b600f82019050919050565b60006134088261322d565b9150613414828b613250565b915061341f826132aa565b915061342b828a613250565b9150613436826132f6565b91506134428289613250565b915061344d82613342565b91506134598288613250565b9150613464826132aa565b91506134708287613250565b915061347b826132f6565b91506134878286613250565b91506134928261338e565b915061349e8285613250565b91506134a9826133da565b91506134b58284613250565b91508190509998505050505050505050565b7f4e487b7100000000000000000000000000000000000000000000000000000000600052601160045260246000fd5b60006135018261232b565b915061350c8361232b565b9250828203905081811115613524576135236134c7565b5b92915050565b6000610140820190508181036000830152613545818d6123e5565b9050613554602083018c61241e565b8181036040830152613566818b6123e5565b9050818103606083015261357a818a6123e5565b9050818103608083015261358e81896123e5565b905081810360a08301526135a281886123e5565b90506135b160c083018761241e565b81810360e08301526135c381866123e5565b90508181036101008301526135d881856123e5565b90508181036101208301526135ed81846123e5565b90509b9a5050505050505050505050565b6000608082019050818103600083015261361881876123e5565b9050818103602083015261362c81866123e5565b9050818103604083015261364081856123e5565b9050818103606083015261365481846123e5565b905095945050505050565b6000606082019050818103600083015261367981866123e5565b9050818103602083015261368d81856123e5565b905081810360408301526136a181846123e5565b9050949350505050565b60006136b68261232b565b91507fffffffffffffffffffffffffffffffffffffffffffffffffffffffffffffffff82036136e8576136e76134c7565b5b600182019050919050565b7f4e487b7100000000000000000000000000000000000000000000000000000000600052601260045260246000fd5b600061372d8261232b565b91506137388361232b565b925082613748576137476136f3565b5b828204905092915050565b600061375e8261232b565b91506137698361232b565b925082613779576137786136f3565b5b828206905092915050565b600061378f8261232b565b915061379a8361232b565b92508282019050808211156137b2576137b16134c7565b5b92915050565b7f4e487b7100000000000000000000000000000000000000000000000000000000600052603260045260246000fdfea2646970667358221220a0b4177655f8768c20ac5bcb35de560a8280d3f470c4cc3bb1344b61daa8760964736f6c63430008110033",
  "immutableReferences": {},
  "source": "// SPDX-License-Identifier: MIT\r\npragma solidity ^0.8.0;\r\n\r\ncontract OrganChain {\r\n    struct Hospital {\r\n        string name;\r\n        string email;\r\n        string location;\r\n        bool isRegistered;\r\n    }\r\n    \r\n    struct Match {\r\n        string donorName;\r\n        uint256 donorAge;\r\n        string donorHospital;\r\n        string encryptedOrgan;\r\n        string encryptedBloodType;\r\n        string patientName;\r\n        uint256 patientAge;\r\n        string patientHospital;\r\n        string date;\r\n    }\r\n    \r\n    struct Record {\r\n        string donorId;\r\n        string organType;\r\n        string hospital;\r\n        string receiverId;\r\n        uint256 timestamp;\r\n    }\r\n    \r\n    mapping(address => Hospital) public hospitals;\r\n    mapping(address => bool) public authorizedAdmins;\r\n    Match[] public matches;\r\n    Record[] public records;\r\n    \r\n    address public owner;\r\n    \r\n    event HospitalAdded(address indexed hospital, string name, string email, string location);\r\n    event HospitalRemoved(address indexed hospital, string name);\r\n    event AdminAdded(address indexed admin);\r\n    event AdminRemoved(address indexed admin);\r\n    event MatchAdded(\r\n        uint256 indexed matchId,\r\n        string donorName,\r\n        uint256 donorAge,\r\n        string donorHospital,\r\n        string encryptedOrgan,\r\n        string encryptedBloodType,\r\n        string patientName,\r\n        uint256 patientAge,\r\n        string patientHospital,\r\n        string date,\r\n        string details\r\n    );\r\n    event OrganRegistered(string donorId, string organType, string hospital, string receiverId);\r\n    \r\n    modifier onlyOwner() {\r\n        require(msg.sender == owner, \"Only owner can perform this action\");\r\n        _;\r\n    }\r\n    \r\n    modifier onlyAdmin() {\r\n        require(authorizedAdmins[msg.sender] || msg.sender == owner, \"Only admins can perform this action\");\r\n        _;\r\n    }\r\n    \r\n    modifier onlyRegisteredHospital() {\r\n        require(hospitals[msg.sender].isRegistered, \"Only registered hospitals can perform this action\");\r\n        _;\r\n    }\r\n    \r\n    constructor() {\r\n        owner = msg.sender;\r\n        authorizedAdmins[msg.sender] = true;\r\n    }\r\n    \r\n    function addAdmin(address admin) public onlyOwner {\r\n        authorizedAdmins[admin] = true;\r\n        emit AdminAdded(admin);\r\n    }\r\n    \r\n    function removeAdmin(address admin) public onlyOwner {\r\n        authorizedAdmins[admin] = false;\r\n        emit AdminRemoved(admin);\r\n    }\r\n    \r\n    function addHospital(string memory name, string memory email, string memory location) public {\r\n        hospitals[msg.sender] = Hospital(name, email, location, true);\r\n        emit HospitalAdded(msg.sender, name, email, location);\r\n    }\r\n    \r\n    function removeHospital() public onlyRegisteredHospital {\r\n        Hospital memory h = hospitals[msg.sender];\r\n        delete hospitals[msg.sender];\r\n        emit HospitalRemoved(msg.sender, h.name);\r\n    }\r\n    \r\n    function getHospital(address hospitalAddr) public view returns (string memory, string memory, string memory, bool) {\r\n        Hospital memory h = hospitals[hospitalAddr];\r\n        return (h.name, h.email, h.location, h.isRegistered);\r\n    }\r\n    \r\n    function isHospitalRegistered(address hospitalAddr) public view returns (bool) {\r\n        return hospitals[hospitalAddr].isRegistered;\r\n    }\r\n    \r\n    function isAdmin(address addr) public view returns (bool) {\r\n        return authorizedAdmins[addr] || addr == owner;\r\n    }\r\n    \r\n    // Add match functions with full donor/patient details\r\n    function addMatch(\r\n        string memory donorName,\r\n        uint256 donorAge,\r\n        string memory donorHospital,\r\n        string memory encryptedOrgan,\r\n        string memory encryptedBloodType,\r\n        string memory patientName,\r\n        uint256 patientAge,\r\n        string memory patientHospital,\r\n        string memory date\r\n    ) public {\r\n        matches.push(Match(\r\n            donorName,\r\n            donorAge,\r\n            donorHospital,\r\n            encryptedOrgan,\r\n            encryptedBloodType,\r\n            patientName,\r\n            patientAge,\r\n            patientHospital,\r\n            date\r\n        ));\r\n        \r\n        // Create a detailed description for the event\r\n        string memory details = string(abi.encodePacked(\r\n            \"Organ match created: Donor \", donorName, \" (\", toString(donorAge), \" years) from \", donorHospital,\r\n            \" matched with Patient \", patientName, \" (\", toString(patientAge), \" years) from \", patientHospital,\r\n            \" for \", getOrganName(encryptedOrgan), \" transplant on \", date\r\n        ));\r\n        \r\n        emit MatchAdded(\r\n            matches.length - 1,\r\n            donorName,\r\n            donorAge,\r\n            donorHospital,\r\n            encryptedOrgan,\r\n            encryptedBloodType,\r\n            patientName,\r\n            patientAge,\r\n            patientHospital,\r\n            date,\r\n            details\r\n        );\r\n    }\r\n    \r\n    function getAllMatches() public view returns (Match[] memory) {\r\n        return matches;\r\n    }\r\n    \r\n    function getMatchesCount() public view returns (uint256) {\r\n        return matches.length;\r\n    }\r\n    \r\n    // Simple record function as per the example\r\n    function addRecord(string memory donorId, string memory organType, string memory hospital, string memory receiverId) public {\r\n        records.push(Record(donorId, organType, hospital, receiverId, block.timestamp));\r\n        emit OrganRegistered(donorId, organType, hospital, receiverId);\r\n    }\r\n\r\n    function getAllRecords() public view returns (Record[] memory) {\r\n        return records;\r\n    }\r\n    \r\n    // Helper function to convert uint to string\r\n    function toString(uint256 value) internal pure returns (string memory) {\r\n        if (value == 0) {\r\n            return \"0\";\r\n        }\r\n        uint256 temp = value;\r\n        uint256 digits;\r\n        while (temp != 0) {\r\n            digits++;\r\n            temp /= 10;\r\n        }\r\n        bytes memory buffer = new bytes(digits);\r\n        while (value != 0) {\r\n            digits -= 1;\r\n            buffer[digits] = bytes1(uint8(48 + uint256(value % 10)));\r\n            value /= 10;\r\n        }\r\n        return string(buffer);\r\n    }\r\n    \r\n    // Helper function to get organ name (this would normally decrypt, but we'll just return a placeholder)\r\n    function getOrganName(string memory encryptedOrgan) internal pure returns (string memory) {\r\n        // In a real implementation, this would decrypt the organ name\r\n        // For now, we'll just return a placeholder\r\n        return \"[Encrypted Organ]\";\r\n    }\r\n}",
  "sourcePath": "C:\\Users\\keert\\OneDrive\\Desktop\\DB_Project\\OD\\contracts\\OrganChain.sol",
  "compiler": {
    "name": "solc",
    "version": "0.8.17+commit.8df45f5f.Emscripten.clang"
  },
  "schemaVersion": "3.4.16",
  "updatedAt": "2025-10-14T07:35:25.377Z",
  "networkType": "ethereum",
  "devdoc": {
    "kind": "dev",
    "methods": {},
    "version": 1
  },
  "userdoc": {
    "kind": "user",
    "methods": {},
    "version": 1
  }
}