{
  "contractName": "OrganChain",
  "abi": [
    {
      "inputs": [],
      "stateMutability": "nonpayable",
      "type": "constructor"
    },
    {
      "anonymous": false,
      "inputs": [
        {
          "indexed": true,
          "internalType": "address",
          "name": "admin",
          "type": "address"
        }
      ],
      "name": "AdminAdded",
      "type": "event"
    },
    {
      "anonymous": false,
      "inputs": [
        {
          "indexed": true,
          "internalType": "address",
          "name": "admin",
          "type": "address"
        }
      ],
      "name": "AdminRemoved",
      "type": "event"
    },
    {
      "anonymous": false,
      "inputs": [
        {
          "indexed": true,
          "internalType": "address",
          "name": "hospital",
          "type": "address"
        },
        {
          "indexed": false,
          "internalType": "string",
          "name": "name",
          "type": "string"
        },
        {
          "indexed": false,
          "internalType": "string",
          "name": "email",
          "type": "string"
        },
        {
          "indexed": false,
          "internalType": "string",
          "name": "location",
          "type": "string"
        }
      ],
      "name": "HospitalAdded",
      "type": "event"
    },
    {
      "anonymous": false,
      "inputs": [
        {
          "indexed": true,
          "internalType": "address",
          "name": "hospital",
          "type": "address"
        },
        {
          "indexed": false,
          "internalType": "string",
          "name": "name",
          "type": "string"
        }
      ],
      "name": "HospitalRemoved",
      "type": "event"
    },
    {
      "anonymous": false,
      "inputs": [
        {
          "indexed": true,
          "internalType": "uint256",
          "name": "matchId",
          "type": "uint256"
        },
        {
          "indexed": false,
          "internalType": "string",
          "name": "donorName",
          "type": "string"
        },
        {
          "indexed": false,
          "internalType": "uint256",
          "name": "donorAge",
          "type": "uint256"
        },
        {
          "indexed": false,
          "internalType": "string",
          "name": "donorHospital",
          "type": "string"
        },
        {
          "indexed": false,
          "internalType": "string",
          "name": "encryptedOrgan",
          "type": "string"
        },
        {
          "indexed": false,
          "internalType": "string",
          "name": "encryptedBloodType",
          "type": "string"
        },
        {
          "indexed": false,
          "internalType": "string",
          "name": "patientName",
          "type": "string"
        },
        {
          "indexed": false,
          "internalType": "uint256",
          "name": "patientAge",
          "type": "uint256"
        },
        {
          "indexed": false,
          "internalType": "string",
          "name": "patientHospital",
          "type": "string"
        },
        {
          "indexed": false,
          "internalType": "string",
          "name": "date",
          "type": "string"
        },
        {
          "indexed": false,
          "internalType": "string",
          "name": "details",
          "type": "string"
        }
      ],
      "name": "MatchAdded",
      "type": "event"
    },
    {
      "inputs": [
        {
          "internalType": "address",
          "name": "",
          "type": "address"
        }
      ],
      "name": "authorizedAdmins",
      "outputs": [
        {
          "internalType": "bool",
          "name": "",
          "type": "bool"
        }
      ],
      "stateMutability": "view",
      "type": "function",
      "constant": true
    },
    {
      "inputs": [
        {
          "internalType": "address",
          "name": "",
          "type": "address"
        }
      ],
      "name": "hospitals",
      "outputs": [
        {
          "internalType": "string",
          "name": "name",
          "type": "string"
        },
        {
          "internalType": "string",
          "name": "email",
          "type": "string"
        },
        {
          "internalType": "string",
          "name": "location",
          "type": "string"
        },
        {
          "internalType": "bool",
          "name": "isRegistered",
          "type": "bool"
        }
      ],
      "stateMutability": "view",
      "type": "function",
      "constant": true
    },
    {
      "inputs": [
        {
          "internalType": "uint256",
          "name": "",
          "type": "uint256"
        }
      ],
      "name": "matches",
      "outputs": [
        {
          "internalType": "string",
          "name": "donorName",
          "type": "string"
        },
        {
          "internalType": "uint256",
          "name": "donorAge",
          "type": "uint256"
        },
        {
          "internalType": "string",
          "name": "donorHospital",
          "type": "string"
        },
        {
          "internalType": "string",
          "name": "encryptedOrgan",
          "type": "string"
        },
        {
          "internalType": "string",
          "name": "encryptedBloodType",
          "type": "string"
        },
        {
          "internalType": "string",
          "name": "patientName",
          "type": "string"
        },
        {
          "internalType": "uint256",
          "name": "patientAge",
          "type": "uint256"
        },
        {
          "internalType": "string",
          "name": "patientHospital",
          "type": "string"
        },
        {
          "internalType": "string",
          "name": "date",
          "type": "string"
        }
      ],
      "stateMutability": "view",
      "type": "function",
      "constant": true
    },
    {
      "inputs": [],
      "name": "owner",
      "outputs": [
        {
          "internalType": "address",
          "name": "",
          "type": "address"
        }
      ],
      "stateMutability": "view",
      "type": "function",
      "constant": true
    },
    {
      "inputs": [
        {
          "internalType": "address",
          "name": "admin",
          "type": "address"
        }
      ],
      "name": "addAdmin",
      "outputs": [],
      "stateMutability": "nonpayable",
      "type": "function"
    },
    {
      "inputs": [
        {
          "internalType": "address",
          "name": "admin",
          "type": "address"
        }
      ],
      "name": "removeAdmin",
      "outputs": [],
      "stateMutability": "nonpayable",
      "type": "function"
    },
    {
      "inputs": [
        {
          "internalType": "string",
          "name": "name",
          "type": "string"
        },
        {
          "internalType": "string",
          "name": "email",
          "type": "string"
        },
        {
          "internalType": "string",
          "name": "location",
          "type": "string"
        }
      ],
      "name": "addHospital",
      "outputs": [],
      "stateMutability": "nonpayable",
      "type": "function"
    },
    {
      "inputs": [],
      "name": "removeHospital",
      "outputs": [],
      "stateMutability": "nonpayable",
      "type": "function"
    },
    {
      "inputs": [
        {
          "internalType": "address",
          "name": "hospitalAddr",
          "type": "address"
        }
      ],
      "name": "getHospital",
      "outputs": [
        {
          "internalType": "string",
          "name": "",
          "type": "string"
        },
        {
          "internalType": "string",
          "name": "",
          "type": "string"
        },
        {
          "internalType": "string",
          "name": "",
          "type": "string"
        },
        {
          "internalType": "bool",
          "name": "",
          "type": "bool"
        }
      ],
      "stateMutability": "view",
      "type": "function",
      "constant": true
    },
    {
      "inputs": [
        {
          "internalType": "address",
          "name": "hospitalAddr",
          "type": "address"
        }
      ],
      "name": "isHospitalRegistered",
      "outputs": [
        {
          "internalType": "bool",
          "name": "",
          "type": "bool"
        }
      ],
      "stateMutability": "view",
      "type": "function",
      "constant": true
    },
    {
      "inputs": [
        {
          "internalType": "address",
          "name": "addr",
          "type": "address"
        }
      ],
      "name": "isAdmin",
      "outputs": [
        {
          "internalType": "bool",
          "name": "",
          "type": "bool"
        }
      ],
      "stateMutability": "view",
      "type": "function",
      "constant": true
    },
    {
      "inputs": [
        {
          "internalType": "string",
          "name": "donorName",
          "type": "string"
        },
        {
          "internalType": "uint256",
          "name": "donorAge",
          "type": "uint256"
        },
        {
          "internalType": "string",
          "name": "donorHospital",
          "type": "string"
        },
        {
          "internalType": "string",
          "name": "encryptedOrgan",
          "type": "string"
        },
        {
          "internalType": "string",
          "name": "encryptedBloodType",
          "type": "string"
        },
        {
          "internalType": "string",
          "name": "patientName",
          "type": "string"
        },
        {
          "internalType": "uint256",
          "name": "patientAge",
          "type": "uint256"
        },
        {
          "internalType": "string",
          "name": "patientHospital",
          "type": "string"
        },
        {
          "internalType": "string",
          "name": "date",
          "type": "string"
        }
      ],
      "name": "addMatch",
      "outputs": [],
      "stateMutability": "nonpayable",
      "type": "function"
    },
    {
      "inputs": [],
      "name": "getAllMatches",
      "outputs": [
        {
          "components": [
            {
              "internalType": "string",
              "name": "donorName",
              "type": "string"
            },
            {
              "internalType": "uint256",
              "name": "donorAge",
              "type": "uint256"
            },
            {
              "internalType": "string",
              "name": "donorHospital",
              "type": "string"
            },
            {
              "internalType": "string",
              "name": "encryptedOrgan",
              "type": "string"
            },
            {
              "internalType": "string",
              "name": "encryptedBloodType",
              "type": "string"
            },
            {
              "internalType": "string",
              "name": "patientName",
              "type": "string"
            },
            {
              "internalType": "uint256",
              "name": "patientAge",
              "type": "uint256"
            },
            {
              "internalType": "string",
              "name": "patientHospital",
              "type": "string"
            },
            {
              "internalType": "string",
              "name": "date",
              "type": "string"
            }
          ],
          "internalType": "struct OrganChain.Match[]",
          "name": "",
          "type": "tuple[]"
        }
      ],
      "stateMutability": "view",
      "type": "function",
      "constant": true
    },
    {
      "inputs": [],
      "name": "getMatchesCount",
      "outputs": [
        {
          "internalType": "uint256",
          "name": "",
          "type": "uint256"
        }
      ],
      "stateMutability": "view",
      "type": "function",
      "constant": true
    }
  ],
  "bytecode": "0x608060405234801561001057600080fd5b5033600360006101000a81548173ffffffffffffffffffffffffffffffffffffffff021916908373ffffffffffffffffffffffffffffffffffffffff16021790555060018060003373ffffffffffffffffffffffffffffffffffffffff1673ffffffffffffffffffffffffffffffffffffffff16815260200190815260200160002060006101000a81548160ff021916908315150217905550612e68806100b86000396000f3fe608060405234801561001057600080fd5b50600436106100ea5760003560e01c8063b4ed9af51161008c578063c10460d811610066578063c10460d81461023d578063c17c5a451461026d578063c49b09b51461028b578063f093cf80146102be576100ea565b8063b4ed9af5146101d3578063bc84243e146101f1578063bfd4e49e14610221576100ea565b80634768d4ef116100c85780634768d4ef14610145578063704802751461017d5780638da5cb5b1461019957806395cb7fff146101b7576100ea565b80630bf453e2146100ef5780631785f53c146100f957806324d7806c14610115575b600080fd5b6100f76102f1565b005b610113600480360381019061010e9190611c29565b610677565b005b61012f600480360381019061012a9190611c29565b6107a5565b60405161013c9190611c71565b60405180910390f35b61015f600480360381019061015a9190611cc2565b610853565b60405161017499989796959493929190611d8e565b60405180910390f35b61019760048036038101906101929190611c29565b610c69565b005b6101a1610d96565b6040516101ae9190611e5b565b60405180910390f35b6101d160048036038101906101cc9190611fab565b610dbc565b005b6101db610f89565b6040516101e89190612139565b60405180910390f35b61020b60048036038101906102069190611c29565b610f96565b6040516102189190611c71565b60405180910390f35b61023b60048036038101906102369190612154565b610fee565b005b61025760048036038101906102529190611c29565b61110c565b6040516102649190611c71565b60405180910390f35b61027561112c565b6040516102829190612405565b60405180910390f35b6102a560048036038101906102a09190611c29565b61159e565b6040516102b59493929190612427565b60405180910390f35b6102d860048036038101906102d39190611c29565b6117e6565b6040516102e89493929190612427565b60405180910390f35b6000803373ffffffffffffffffffffffffffffffffffffffff1673ffffffffffffffffffffffffffffffffffffffff16815260200190815260200160002060030160009054906101000a900460ff1661037f576040517f08c379a0000000000000000000000000000000000000000000000000000000008152600401610376906124f3565b60405180910390fd5b60008060003373ffffffffffffffffffffffffffffffffffffffff1673ffffffffffffffffffffffffffffffffffffffff1681526020019081526020016000206040518060800160405290816000820180546103da90612542565b80601f016020809104026020016040519081016040528092919081815260200182805461040690612542565b80156104535780601f1061042857610100808354040283529160200191610453565b820191906000526020600020905b81548152906001019060200180831161043657829003601f168201915b5050505050815260200160018201805461046c90612542565b80601f016020809104026020016040519081016040528092919081815260200182805461049890612542565b80156104e55780601f106104ba576101008083540402835291602001916104e5565b820191906000526020600020905b8154815290600101906020018083116104c857829003601f168201915b505050505081526020016002820180546104fe90612542565b80601f016020809104026020016040519081016040528092919081815260200182805461052a90612542565b80156105775780601f1061054c57610100808354040283529160200191610577565b820191906000526020600020905b81548152906001019060200180831161055a57829003601f168201915b505050505081526020016003820160009054906101000a900460ff16151515158152505090506000803373ffffffffffffffffffffffffffffffffffffffff1673ffffffffffffffffffffffffffffffffffffffff168152602001908152602001600020600080820160006105ec9190611b5a565b6001820160006105fc9190611b5a565b60028201600061060c9190611b5a565b6003820160006101000a81549060ff021916905550503373ffffffffffffffffffffffffffffffffffffffff167f1a7b4b7b16d64661666722794f103b24f277a44dbbd1499eed91bd3422f2ee87826000015160405161066c9190612573565b60405180910390a250565b600360009054906101000a900473ffffffffffffffffffffffffffffffffffffffff1673ffffffffffffffffffffffffffffffffffffffff163373ffffffffffffffffffffffffffffffffffffffff1614610707576040517f08c379a00000000000000000000000000000000000000000000000000000000081526004016106fe90612607565b60405180910390fd5b6000600160008373ffffffffffffffffffffffffffffffffffffffff1673ffffffffffffffffffffffffffffffffffffffff16815260200190815260200160002060006101000a81548160ff0219169083151502179055508073ffffffffffffffffffffffffffffffffffffffff167fa3b62bc36326052d97ea62d63c3d60308ed4c3ea8ac079dd8499f1e9c4f80c0f60405160405180910390a250565b6000600160008373ffffffffffffffffffffffffffffffffffffffff1673ffffffffffffffffffffffffffffffffffffffff16815260200190815260200160002060009054906101000a900460ff168061084c5750600360009054906101000a900473ffffffffffffffffffffffffffffffffffffffff1673ffffffffffffffffffffffffffffffffffffffff168273ffffffffffffffffffffffffffffffffffffffff16145b9050919050565b6002818154811061086357600080fd5b906000526020600020906009020160009150905080600001805461088690612542565b80601f01602080910402602001604051908101604052809291908181526020018280546108b290612542565b80156108ff5780601f106108d4576101008083540402835291602001916108ff565b820191906000526020600020905b8154815290600101906020018083116108e257829003601f168201915b50505050509080600101549080600201805461091a90612542565b80601f016020809104026020016040519081016040528092919081815260200182805461094690612542565b80156109935780601f1061096857610100808354040283529160200191610993565b820191906000526020600020905b81548152906001019060200180831161097657829003601f168201915b5050505050908060030180546109a890612542565b80601f01602080910402602001604051908101604052809291908181526020018280546109d490612542565b8015610a215780601f106109f657610100808354040283529160200191610a21565b820191906000526020600020905b815481529060010190602001808311610a0457829003601f168201915b505050505090806004018054610a3690612542565b80601f0160208091040260200160405190810160405280929190818152602001828054610a6290612542565b8015610aaf5780601f10610a8457610100808354040283529160200191610aaf565b820191906000526020600020905b815481529060010190602001808311610a9257829003601f168201915b505050505090806005018054610ac490612542565b80601f0160208091040260200160405190810160405280929190818152602001828054610af090612542565b8015610b3d5780601f10610b1257610100808354040283529160200191610b3d565b820191906000526020600020905b815481529060010190602001808311610b2057829003601f168201915b505050505090806006015490806007018054610b5890612542565b80601f0160208091040260200160405190810160405280929190818152602001828054610b8490612542565b8015610bd15780601f10610ba657610100808354040283529160200191610bd1565b820191906000526020600020905b815481529060010190602001808311610bb457829003601f168201915b505050505090806008018054610be690612542565b80601f0160208091040260200160405190810160405280929190818152602001828054610c1290612542565b8015610c5f5780601f10610c3457610100808354040283529160200191610c5f565b820191906000526020600020905b815481529060010190602001808311610c4257829003601f168201915b5050505050905089565b600360009054906101000a900473ffffffffffffffffffffffffffffffffffffffff1673ffffffffffffffffffffffffffffffffffffffff163373ffffffffffffffffffffffffffffffffffffffff1614610cf9576040517f08c379a0000000000000000000000000000000000000000000000000000000008152600401610cf090612607565b60405180910390fd5b60018060008373ffffffffffffffffffffffffffffffffffffffff1673ffffffffffffffffffffffffffffffffffffffff16815260200190815260200160002060006101000a81548160ff0219169083151502179055508073ffffffffffffffffffffffffffffffffffffffff167f44d6d25963f097ad14f29f06854a01f575648a1ef82f30e562ccd3889717e33960405160405180910390a250565b600360009054906101000a900473ffffffffffffffffffffffffffffffffffffffff1681565b60026040518061012001604052808b81526020018a81526020018981526020018881526020018781526020018681526020018581526020018481526020018381525090806001815401808255809150506001900390600052602060002090600902016000909190919091506000820151816000019081610e3c91906127d3565b50602082015181600101556040820151816002019081610e5c91906127d3565b506060820151816003019081610e7291906127d3565b506080820151816004019081610e8891906127d3565b5060a0820151816005019081610e9e91906127d3565b5060c0820151816006015560e0820151816007019081610ebe91906127d3565b50610100820151816008019081610ed591906127d3565b505050600089610ee48a6119bb565b8987610eef886119bb565b87610ef98d611b1b565b88604051602001610f11989796959493929190612aa9565b60405160208183030381529060405290506001600280549050610f349190612ba2565b7f21b7535272f9a01406a54d63506904591d30c2553081ab3fbe55c0e331897f708b8b8b8b8b8b8b8b8b8b604051610f759a99989796959493929190612bd6565b60405180910390a250505050505050505050565b6000600280549050905090565b60008060008373ffffffffffffffffffffffffffffffffffffffff1673ffffffffffffffffffffffffffffffffffffffff16815260200190815260200160002060030160009054906101000a900460ff169050919050565b6040518060800160405280848152602001838152602001828152602001600115158152506000803373ffffffffffffffffffffffffffffffffffffffff1673ffffffffffffffffffffffffffffffffffffffff168152602001908152602001600020600082015181600001908161106591906127d3565b50602082015181600101908161107b91906127d3565b50604082015181600201908161109191906127d3565b5060608201518160030160006101000a81548160ff0219169083151502179055509050503373ffffffffffffffffffffffffffffffffffffffff167f9852fec51518ea51234b7a2ed37e7b12a59b0646d045aaa871f5f1534e203fb68484846040516110ff93929190612caa565b60405180910390a2505050565b60016020528060005260406000206000915054906101000a900460ff1681565b60606002805480602002602001604051908101604052809291908181526020016000905b8282101561159557838290600052602060002090600902016040518061012001604052908160008201805461118490612542565b80601f01602080910402602001604051908101604052809291908181526020018280546111b090612542565b80156111fd5780601f106111d2576101008083540402835291602001916111fd565b820191906000526020600020905b8154815290600101906020018083116111e057829003601f168201915b505050505081526020016001820154815260200160028201805461122090612542565b80601f016020809104026020016040519081016040528092919081815260200182805461124c90612542565b80156112995780601f1061126e57610100808354040283529160200191611299565b820191906000526020600020905b81548152906001019060200180831161127c57829003601f168201915b505050505081526020016003820180546112b290612542565b80601f01602080910402602001604051908101604052809291908181526020018280546112de90612542565b801561132b5780601f106113005761010080835404028352916020019161132b565b820191906000526020600020905b81548152906001019060200180831161130e57829003601f168201915b5050505050815260200160048201805461134490612542565b80601f016020809104026020016040519081016040528092919081815260200182805461137090612542565b80156113bd5780601f10611392576101008083540402835291602001916113bd565b820191906000526020600020905b8154815290600101906020018083116113a057829003601f168201915b505050505081526020016005820180546113d690612542565b80601f016020809104026020016040519081016040528092919081815260200182805461140290612542565b801561144f5780601f106114245761010080835404028352916020019161144f565b820191906000526020600020905b81548152906001019060200180831161143257829003601f168201915b505050505081526020016006820154815260200160078201805461147290612542565b80601f016020809104026020016040519081016040528092919081815260200182805461149e90612542565b80156114eb5780601f106114c0576101008083540402835291602001916114eb565b820191906000526020600020905b8154815290600101906020018083116114ce57829003601f168201915b5050505050815260200160088201805461150490612542565b80601f016020809104026020016040519081016040528092919081815260200182805461153090612542565b801561157d5780601f106115525761010080835404028352916020019161157d565b820191906000526020600020905b81548152906001019060200180831161156057829003601f168201915b50505050508152505081526020019060010190611150565b50505050905090565b60608060606000806000808773ffffffffffffffffffffffffffffffffffffffff1673ffffffffffffffffffffffffffffffffffffffff1681526020019081526020016000206040518060800160405290816000820180546115ff90612542565b80601f016020809104026020016040519081016040528092919081815260200182805461162b90612542565b80156116785780601f1061164d57610100808354040283529160200191611678565b820191906000526020600020905b81548152906001019060200180831161165b57829003601f168201915b5050505050815260200160018201805461169190612542565b80601f01602080910402602001604051908101604052809291908181526020018280546116bd90612542565b801561170a5780601f106116df5761010080835404028352916020019161170a565b820191906000526020600020905b8154815290600101906020018083116116ed57829003601f168201915b5050505050815260200160028201805461172390612542565b80601f016020809104026020016040519081016040528092919081815260200182805461174f90612542565b801561179c5780601f106117715761010080835404028352916020019161179c565b820191906000526020600020905b81548152906001019060200180831161177f57829003601f168201915b505050505081526020016003820160009054906101000a900460ff161515151581525050905080600001518160200151826040015183606001519450945094509450509193509193565b600060205280600052604060002060009150905080600001805461180990612542565b80601f016020809104026020016040519081016040528092919081815260200182805461183590612542565b80156118825780601f1061185757610100808354040283529160200191611882565b820191906000526020600020905b81548152906001019060200180831161186557829003601f168201915b50505050509080600101805461189790612542565b80601f01602080910402602001604051908101604052809291908181526020018280546118c390612542565b80156119105780601f106118e557610100808354040283529160200191611910565b820191906000526020600020905b8154815290600101906020018083116118f357829003601f168201915b50505050509080600201805461192590612542565b80601f016020809104026020016040519081016040528092919081815260200182805461195190612542565b801561199e5780601f106119735761010080835404028352916020019161199e565b820191906000526020600020905b81548152906001019060200180831161198157829003601f168201915b5050505050908060030160009054906101000a900460ff16905084565b606060008203611a02576040518060400160405280600181526020017f30000000000000000000000000000000000000000000000000000000000000008152509050611b16565b600082905060005b60008214611a34578080611a1d90612cf6565b915050600a82611a2d9190612d6d565b9150611a0a565b60008167ffffffffffffffff811115611a5057611a4f611e80565b5b6040519080825280601f01601f191660200182016040528015611a825781602001600182028036833780820191505090505b5090505b60008514611b0f57600182611a9b9190612ba2565b9150600a85611aaa9190612d9e565b6030611ab69190612dcf565b60f81b818381518110611acc57611acb612e03565b5b60200101907effffffffffffffffffffffffffffffffffffffffffffffffffffffffffffff1916908160001a905350600a85611b089190612d6d565b9450611a86565b8093505050505b919050565b60606040518060400160405280601181526020017f5b456e63727970746564204f7267616e5d0000000000000000000000000000008152509050919050565b508054611b6690612542565b6000825580601f10611b785750611b97565b601f016020900490600052602060002090810190611b969190611b9a565b5b50565b5b80821115611bb3576000816000905550600101611b9b565b5090565b6000604051905090565b600080fd5b600080fd5b600073ffffffffffffffffffffffffffffffffffffffff82169050919050565b6000611bf682611bcb565b9050919050565b611c0681611beb565b8114611c1157600080fd5b50565b600081359050611c2381611bfd565b92915050565b600060208284031215611c3f57611c3e611bc1565b5b6000611c4d84828501611c14565b91505092915050565b60008115159050919050565b611c6b81611c56565b82525050565b6000602082019050611c866000830184611c62565b92915050565b6000819050919050565b611c9f81611c8c565b8114611caa57600080fd5b50565b600081359050611cbc81611c96565b92915050565b600060208284031215611cd857611cd7611bc1565b5b6000611ce684828501611cad565b91505092915050565b600081519050919050565b600082825260208201905092915050565b60005b83811015611d29578082015181840152602081019050611d0e565b60008484015250505050565b6000601f19601f8301169050919050565b6000611d5182611cef565b611d5b8185611cfa565b9350611d6b818560208601611d0b565b611d7481611d35565b840191505092915050565b611d8881611c8c565b82525050565b6000610120820190508181036000830152611da9818c611d46565b9050611db8602083018b611d7f565b8181036040830152611dca818a611d46565b90508181036060830152611dde8189611d46565b90508181036080830152611df28188611d46565b905081810360a0830152611e068187611d46565b9050611e1560c0830186611d7f565b81810360e0830152611e278185611d46565b9050818103610100830152611e3c8184611d46565b90509a9950505050505050505050565b611e5581611beb565b82525050565b6000602082019050611e706000830184611e4c565b92915050565b600080fd5b600080fd5b7f4e487b7100000000000000000000000000000000000000000000000000000000600052604160045260246000fd5b611eb882611d35565b810181811067ffffffffffffffff82111715611ed757611ed6611e80565b5b80604052505050565b6000611eea611bb7565b9050611ef68282611eaf565b919050565b600067ffffffffffffffff821115611f1657611f15611e80565b5b611f1f82611d35565b9050602081019050919050565b82818337600083830152505050565b6000611f4e611f4984611efb565b611ee0565b905082815260208101848484011115611f6a57611f69611e7b565b5b611f75848285611f2c565b509392505050565b600082601f830112611f9257611f91611e76565b5b8135611fa2848260208601611f3b565b91505092915050565b60008060008060008060008060006101208a8c031215611fce57611fcd611bc1565b5b60008a013567ffffffffffffffff811115611fec57611feb611bc6565b5b611ff88c828d01611f7d565b99505060206120098c828d01611cad565b98505060408a013567ffffffffffffffff81111561202a57612029611bc6565b5b6120368c828d01611f7d565b97505060608a013567ffffffffffffffff81111561205757612056611bc6565b5b6120638c828d01611f7d565b96505060808a013567ffffffffffffffff81111561208457612083611bc6565b5b6120908c828d01611f7d565b95505060a08a013567ffffffffffffffff8111156120b1576120b0611bc6565b5b6120bd8c828d01611f7d565b94505060c06120ce8c828d01611cad565b93505060e08a013567ffffffffffffffff8111156120ef576120ee611bc6565b5b6120fb8c828d01611f7d565b9250506101008a013567ffffffffffffffff81111561211d5761211c611bc6565b5b6121298c828d01611f7d565b9150509295985092959850929598565b600060208201905061214e6000830184611d7f565b92915050565b60008060006060848603121561216d5761216c611bc1565b5b600084013567ffffffffffffffff81111561218b5761218a611bc6565b5b61219786828701611f7d565b935050602084013567ffffffffffffffff8111156121b8576121b7611bc6565b5b6121c486828701611f7d565b925050604084013567ffffffffffffffff8111156121e5576121e4611bc6565b5b6121f186828701611f7d565b9150509250925092565b600081519050919050565b600082825260208201905092915050565b6000819050602082019050919050565b600082825260208201905092915050565b600061224382611cef565b61224d8185612227565b935061225d818560208601611d0b565b61226681611d35565b840191505092915050565b61227a81611c8c565b82525050565b600061012083016000830151848203600086015261229e8282612238565b91505060208301516122b36020860182612271565b50604083015184820360408601526122cb8282612238565b915050606083015184820360608601526122e58282612238565b915050608083015184820360808601526122ff8282612238565b91505060a083015184820360a08601526123198282612238565b91505060c083015161232e60c0860182612271565b5060e083015184820360e08601526123468282612238565b9150506101008301518482036101008601526123628282612238565b9150508091505092915050565b600061237b8383612280565b905092915050565b6000602082019050919050565b600061239b826121fb565b6123a58185612206565b9350836020820285016123b785612217565b8060005b858110156123f357848403895281516123d4858261236f565b94506123df83612383565b925060208a019950506001810190506123bb565b50829750879550505050505092915050565b6000602082019050818103600083015261241f8184612390565b905092915050565b600060808201905081810360008301526124418187611d46565b905081810360208301526124558186611d46565b905081810360408301526124698185611d46565b90506124786060830184611c62565b95945050505050565b7f4f6e6c79207265676973746572656420686f73706974616c732063616e20706560008201527f72666f726d207468697320616374696f6e000000000000000000000000000000602082015250565b60006124dd603183611cfa565b91506124e882612481565b604082019050919050565b6000602082019050818103600083015261250c816124d0565b9050919050565b7f4e487b7100000000000000000000000000000000000000000000000000000000600052602260045260246000fd5b6000600282049050600182168061255a57607f821691505b60208210810361256d5761256c612513565b5b50919050565b6000602082019050818103600083015261258d8184611d46565b905092915050565b7f4f6e6c79206f776e65722063616e20706572666f726d2074686973206163746960008201527f6f6e000000000000000000000000000000000000000000000000000000000000602082015250565b60006125f1602283611cfa565b91506125fc82612595565b604082019050919050565b60006020820190508181036000830152612620816125e4565b9050919050565b60008190508160005260206000209050919050565b60006020601f8301049050919050565b600082821b905092915050565b6000600883026126897fffffffffffffffffffffffffffffffffffffffffffffffffffffffffffffffff8261264c565b612693868361264c565b95508019841693508086168417925050509392505050565b6000819050919050565b60006126d06126cb6126c684611c8c565b6126ab565b611c8c565b9050919050565b6000819050919050565b6126ea836126b5565b6126fe6126f6826126d7565b848454612659565b825550505050565b600090565b612713612706565b61271e8184846126e1565b505050565b5b818110156127425761273760008261270b565b600181019050612724565b5050565b601f8211156127875761275881612627565b6127618461263c565b81016020851015612770578190505b61278461277c8561263c565b830182612723565b50505b505050565b600082821c905092915050565b60006127aa6000198460080261278c565b1980831691505092915050565b60006127c38383612799565b9150826002028217905092915050565b6127dc82611cef565b67ffffffffffffffff8111156127f5576127f4611e80565b5b6127ff8254612542565b61280a828285612746565b600060209050601f83116001811461283d576000841561282b578287015190505b61283585826127b7565b86555061289d565b601f19841661284b86612627565b60005b828110156128735784890151825560018201915060208501945060208101905061284e565b86831015612890578489015161288c601f891682612799565b8355505b6001600288020188555050505b505050505050565b600081905092915050565b7f4f7267616e206d6174636820637265617465643a20446f6e6f72200000000000600082015250565b60006128e6601b836128a5565b91506128f1826128b0565b601b82019050919050565b600061290782611cef565b61291181856128a5565b9350612921818560208601611d0b565b80840191505092915050565b7f2028000000000000000000000000000000000000000000000000000000000000600082015250565b60006129636002836128a5565b915061296e8261292d565b600282019050919050565b7f207965617273292066726f6d2000000000000000000000000000000000000000600082015250565b60006129af600d836128a5565b91506129ba82612979565b600d82019050919050565b7f206d61746368656420776974682050617469656e742000000000000000000000600082015250565b60006129fb6016836128a5565b9150612a06826129c5565b601682019050919050565b7f20666f7220000000000000000000000000000000000000000000000000000000600082015250565b6000612a476005836128a5565b9150612a5282612a11565b600582019050919050565b7f207472616e73706c616e74206f6e200000000000000000000000000000000000600082015250565b6000612a93600f836128a5565b9150612a9e82612a5d565b600f82019050919050565b6000612ab4826128d9565b9150612ac0828b6128fc565b9150612acb82612956565b9150612ad7828a6128fc565b9150612ae2826129a2565b9150612aee82896128fc565b9150612af9826129ee565b9150612b0582886128fc565b9150612b1082612956565b9150612b1c82876128fc565b9150612b27826129a2565b9150612b3382866128fc565b9150612b3e82612a3a565b9150612b4a82856128fc565b9150612b5582612a86565b9150612b6182846128fc565b91508190509998505050505050505050565b7f4e487b7100000000000000000000000000000000000000000000000000000000600052601160045260246000fd5b6000612bad82611c8c565b9150612bb883611c8c565b9250828203905081811115612bd057612bcf612b73565b5b92915050565b6000610140820190508181036000830152612bf1818d611d46565b9050612c00602083018c611d7f565b8181036040830152612c12818b611d46565b90508181036060830152612c26818a611d46565b90508181036080830152612c3a8189611d46565b905081810360a0830152612c4e8188611d46565b9050612c5d60c0830187611d7f565b81810360e0830152612c6f8186611d46565b9050818103610100830152612c848185611d46565b9050818103610120830152612c998184611d46565b90509b9a5050505050505050505050565b60006060820190508181036000830152612cc48186611d46565b90508181036020830152612cd88185611d46565b90508181036040830152612cec8184611d46565b9050949350505050565b6000612d0182611c8c565b91507fffffffffffffffffffffffffffffffffffffffffffffffffffffffffffffffff8203612d3357612d32612b73565b5b600182019050919050565b7f4e487b7100000000000000000000000000000000000000000000000000000000600052601260045260246000fd5b6000612d7882611c8c565b9150612d8383611c8c565b925082612d9357612d92612d3e565b5b828204905092915050565b6000612da982611c8c565b9150612db483611c8c565b925082612dc457612dc3612d3e565b5b828206905092915050565b6000612dda82611c8c565b9150612de583611c8c565b9250828201905080821115612dfd57612dfc612b73565b5b92915050565b7f4e487b7100000000000000000000000000000000000000000000000000000000600052603260045260246000fdfea2646970667358221220be70df9acc9d277af6fae111eb7dffaf8c1599da7ba7bdc151b87684c552bb4164736f6c63430008110033",
  "immutableReferences": {},
  "source": "// SPDX-License-Identifier: MIT\r\npragma solidity ^0.8.0;\r\n\r\ncontract OrganChain {\r\n    struct Hospital {\r\n        string name;\r\n        string email;\r\n        string location;\r\n        bool isRegistered;\r\n    }\r\n    \r\n    struct Match {\r\n        string donorName;\r\n        uint256 donorAge;\r\n        string donorHospital;\r\n        string encryptedOrgan;\r\n        string encryptedBloodType;\r\n        string patientName;\r\n        uint256 patientAge;\r\n        string patientHospital;\r\n        string date;\r\n    }\r\n    \r\n    mapping(address => Hospital) public hospitals;\r\n    mapping(address => bool) public authorizedAdmins;\r\n    Match[] public matches;\r\n    \r\n    address public owner;\r\n    \r\n    event HospitalAdded(address indexed hospital, string name, string email, string location);\r\n    event HospitalRemoved(address indexed hospital, string name);\r\n    event AdminAdded(address indexed admin);\r\n    event AdminRemoved(address indexed admin);\r\n    event MatchAdded(\r\n        uint256 indexed matchId,\r\n        string donorName,\r\n        uint256 donorAge,\r\n        string donorHospital,\r\n        string encryptedOrgan,\r\n        string encryptedBloodType,\r\n        string patientName,\r\n        uint256 patientAge,\r\n        string patientHospital,\r\n        string date,\r\n        string details\r\n    );\r\n    \r\n    modifier onlyOwner() {\r\n        require(msg.sender == owner, \"Only owner can perform this action\");\r\n        _;\r\n    }\r\n    \r\n    modifier onlyAdmin() {\r\n        require(authorizedAdmins[msg.sender] || msg.sender == owner, \"Only admins can perform this action\");\r\n        _;\r\n    }\r\n    \r\n    modifier onlyRegisteredHospital() {\r\n        require(hospitals[msg.sender].isRegistered, \"Only registered hospitals can perform this action\");\r\n        _;\r\n    }\r\n    \r\n    constructor() {\r\n        owner = msg.sender;\r\n        authorizedAdmins[msg.sender] = true;\r\n    }\r\n    \r\n    function addAdmin(address admin) public onlyOwner {\r\n        authorizedAdmins[admin] = true;\r\n        emit AdminAdded(admin);\r\n    }\r\n    \r\n    function removeAdmin(address admin) public onlyOwner {\r\n        authorizedAdmins[admin] = false;\r\n        emit AdminRemoved(admin);\r\n    }\r\n    \r\n    function addHospital(string memory name, string memory email, string memory location) public {\r\n        hospitals[msg.sender] = Hospital(name, email, location, true);\r\n        emit HospitalAdded(msg.sender, name, email, location);\r\n    }\r\n    \r\n    function removeHospital() public onlyRegisteredHospital {\r\n        Hospital memory h = hospitals[msg.sender];\r\n        delete hospitals[msg.sender];\r\n        emit HospitalRemoved(msg.sender, h.name);\r\n    }\r\n    \r\n    function getHospital(address hospitalAddr) public view returns (string memory, string memory, string memory, bool) {\r\n        Hospital memory h = hospitals[hospitalAddr];\r\n        return (h.name, h.email, h.location, h.isRegistered);\r\n    }\r\n    \r\n    function isHospitalRegistered(address hospitalAddr) public view returns (bool) {\r\n        return hospitals[hospitalAddr].isRegistered;\r\n    }\r\n    \r\n    function isAdmin(address addr) public view returns (bool) {\r\n        return authorizedAdmins[addr] || addr == owner;\r\n    }\r\n    \r\n    // Add match functions with full donor/patient details\r\n    function addMatch(\r\n        string memory donorName,\r\n        uint256 donorAge,\r\n        string memory donorHospital,\r\n        string memory encryptedOrgan,\r\n        string memory encryptedBloodType,\r\n        string memory patientName,\r\n        uint256 patientAge,\r\n        string memory patientHospital,\r\n        string memory date\r\n    ) public {\r\n        matches.push(Match(\r\n            donorName,\r\n            donorAge,\r\n            donorHospital,\r\n            encryptedOrgan,\r\n            encryptedBloodType,\r\n            patientName,\r\n            patientAge,\r\n            patientHospital,\r\n            date\r\n        ));\r\n        \r\n        // Create a detailed description for the event\r\n        string memory details = string(abi.encodePacked(\r\n            \"Organ match created: Donor \", donorName, \" (\", toString(donorAge), \" years) from \", donorHospital,\r\n            \" matched with Patient \", patientName, \" (\", toString(patientAge), \" years) from \", patientHospital,\r\n            \" for \", getOrganName(encryptedOrgan), \" transplant on \", date\r\n        ));\r\n        \r\n        emit MatchAdded(\r\n            matches.length - 1,\r\n            donorName,\r\n            donorAge,\r\n            donorHospital,\r\n            encryptedOrgan,\r\n            encryptedBloodType,\r\n            patientName,\r\n            patientAge,\r\n            patientHospital,\r\n            date,\r\n            details\r\n        );\r\n    }\r\n    \r\n    function getAllMatches() public view returns (Match[] memory) {\r\n        return matches;\r\n    }\r\n    \r\n    function getMatchesCount() public view returns (uint256) {\r\n        return matches.length;\r\n    }\r\n    \r\n    // Helper function to convert uint to string\r\n    function toString(uint256 value) internal pure returns (string memory) {\r\n        if (value == 0) {\r\n            return \"0\";\r\n        }\r\n        uint256 temp = value;\r\n        uint256 digits;\r\n        while (temp != 0) {\r\n            digits++;\r\n            temp /= 10;\r\n        }\r\n        bytes memory buffer = new bytes(digits);\r\n        while (value != 0) {\r\n            digits -= 1;\r\n            buffer[digits] = bytes1(uint8(48 + uint256(value % 10)));\r\n            value /= 10;\r\n        }\r\n        return string(buffer);\r\n    }\r\n    \r\n    // Helper function to get organ name (this would normally decrypt, but we'll just return a placeholder)\r\n    function getOrganName(string memory encryptedOrgan) internal pure returns (string memory) {\r\n        // In a real implementation, this would decrypt the organ name\r\n        // For now, we'll just return a placeholder\r\n        return \"[Encrypted Organ]\";\r\n    }\r\n}",
  "sourcePath": "C:\\Users\\keert\\OneDrive\\Desktop\\DB_Project\\OD\\contracts\\OrganChain.sol",
  "compiler": {
    "name": "solc",
    "version": "0.8.17+commit.8df45f5f.Emscripten.clang"
  },
  "schemaVersion": "3.4.16",
  "updatedAt": "2025-10-12T19:54:53.862Z",
  "networkType": "ethereum",
  "devdoc": {
    "kind": "dev",
    "methods": {},
    "version": 1
  },
  "userdoc": {
    "kind": "user",
    "methods": {},
    "version": 1
  }
}